:020000040000FA
:060000007FEF05F0120085
:020006000000F8
:060008002AEF01F01200D6
:02000E00600E82
:10001000D36E180E7E6E7F6A110EC26EC16AAE0E6E
:10002000C06E180E926E936A010E946EF19E7786E2
:10003000640E00016A6F6B6B7B6B7C6B6E6B6F6B1E
:10004000706B716B726B736B746B756B646B656BE0
:10005000030E7D6F80B604D0060E7E6F7F6B02D0DC
:100060007E6B7F6B766B9F0EE66E26EC05F0E5529D
:10007000E00EE66EE30EE66E0AEC05F0E552E552A0
:10008000F28AF28E0001626B636B776B786B100EF5
:1000900078AF02D0D89003D0775D000E785917E280
:1000A0009F0EE66E42EC05F0E5529BEC05F096ECF7
:1000B00005F0000901E0FBD78DEC05F0F3500001DD
:1000C0006227F4506323772B000E7823E0D762C0B9
:1000D0006CF063C06DF0626B636B776B786B100EC6
:1000E00078AF02D0D89003D0775D000E785917E230
:1000F000A70EE66E42EC05F0E5529BEC05F096EC9F
:1001000005F0000901E0FBD78DEC05F0F35000018C
:100110006227F4506323772B000E7823E0D762C068
:1001200060F063C061F060C006F061C007F0086A6B
:10013000096A07AE02D008680968E80E0B6E030E64
:100140000C6E0D6A0E6AAEEC04F002C006F003C03D
:1001500007F004C008F005C009F0610E0B6E3D0EFB
:100160000C6E0D6A0E6AFEEC03F006C060F007C06C
:1001700061F060C014F061C015F0166A176A15AE20
:1001800002D016681768F80E0B6E1F0E0C6E0D6A03
:100190000E6A14C006F015C007F016C008F017C0AC
:1001A00009F0AEEC04F002C014F003C015F004C076
:1001B00016F005C017F06CC01CF06DC01DF01E6A73
:1001C0001F6A1DAE02D01E681F6860C018F061C0B3
:1001D00019F01A6A1B6A19AE02D01A681B6818C097
:1001E00006F019C007F01AC008F01BC009F01CC0C7
:1001F0000BF01DC00CF01EC00DF01FC00EF0AEECD9
:1002000004F014500224066E15500320076E165099
:100210000420086E17500520096EF00E0B6E3F0E7D
:100220000C6E0D6A0E6AFEEC03F006C068F007C0A3
:1002300069F080B60DD000017451751109E1020E0C
:10024000746F756B765102E1010E01D0000E766F6E
:1002500019D71200DACFE4FFE2CFDAFFE9CFE4FFEB
:10026000EACFE4FFF6CFE4FFF7CFE4FFF5CFE4FFFA
:10027000F3CFE4FFF4CFE4FFFACFE4FF00EE00F0A9
:10028000140EE80403E3EECFE4FFFBD700EE14F016
:100290000C0EE80403E3EECFE4FFFBD7E652F29442
:1002A000E00EE66EE30EE66E0AEC05F0E552E5526E
:1002B00000016A07000E6B5B6A516B113BE1640E33
:1002C0006A6F6B6B68C064F069C065F064516E273B
:1002D00065516F23D8906F5104E6100E6E5D270EA6
:1002E0006F591CE3100E6E5F270E6F5B702B000EB4
:1002F0007123D890715104E6E80E705D030E7159B8
:100300000DE3E80E705F030E715BE70E721902E1F8
:10031000030E731903E0722B000E732374517511D1
:1003200003E07407000E755B7E517F1103E07E07CA
:10033000000E7F5B765101E079D0030E7D6F65354D
:1003400004E26451E708030E655504E2E70E646FAA
:10035000030E656F020E7B1901E17C5155E0010E21
:100360007B1901E17C5124E07B5101E17C5101E0EA
:100370005DD0640E65AF02D0D89003D0645D000EEE
:10038000655904E20A0E796F7A6B11D064C079F076
:1003900065C07AF0640E0D6E0E6A79C008F07AC0FE
:1003A00009F0D8EC03F008C079F009C07AF03ED02B
:1003B0000A0E65AF02D0D89003D0645D000E655977
:1003C00004E20A0E796F7A6B1ED064C079F065C0C2
:1003D0007AF0640E0D6E0E6A79C008F07AC009F0EA
:1003E000D8EC03F004C079F005C07AF00A0E0D6E67
:1003F0000E6A79C008F07AC009F0D8EC03F008C0A2
:1004000079F009C07AF012D064C079F065C07AF052
:100410000A0E0D6E0E6A79C008F07AC009F0D8ECA9
:1004200003F004C079F005C07AF000D00001760531
:1004300001E0B1D0640E73AF02D0D89003D0725DEA
:10044000000E735907E3020E7D6F72C066F073C031
:1004500067F04FD00A0E73AF02D0D89003D0725D10
:10046000000E735924E3010E7D6F70C020F071C03F
:1004700021F0640E0D6E0E6A20C008F021C009F054
:10048000D8EC03F008C020F009C021F00A0E086E75
:10049000096A72C00DF073C00EF032EC04F0065021
:1004A00020240001666F07502120676F22D07D6BEA
:1004B00070C020F071C021F00A0E0D6E0E6A20C0CF
:1004C00008F021C009F0D8EC03F008C020F009C002
:1004D00021F0640E086E096A72C00DF073C00EF050
:1004E00032EC04F0065020240001666F07502120F2
:1004F000676F020E7B1901E17C513BE0010E7B1915
:1005000001E17C5117E07B5101E17C5101E043D0D6
:1005100066C079F067C07AF0640E0D6E0E6A79C01D
:1005200008F07AC009F0D8EC03F008C079F009C0EF
:100530007AF031D066C079F067C07AF0640E0D6E43
:100540000E6A79C008F07AC009F0D8EC03F004C054
:1005500079F005C07AF00A0E0D6E0E6A79C008F0C7
:100560007AC009F0D8EC03F008C079F009C07AF03D
:1005700012D066C079F067C07AF00A0E0D6E0E6A6E
:1005800079C008F07AC009F0D8EC03F004C079F023
:1005900005C07AF000D000017E517F111BE0020EF1
:1005A0007B1901E17C5110E0010E7B1901E17C51C6
:1005B00008E07B5101E17C5101E00AD0796B7A6B54
:1005C00007D0796B7A6B04D0050E796F7A6B00D007
:1005D000020E7D6F8A888B848B820A0E791901E165
:1005E0007A5101E182D0090E791901E17A5175E061
:1005F000080E791901E17A5168E0070E791901E1D5
:100600007A515BE0060E791901E17A514EE0050E50
:10061000791901E17A5141E0040E791901E17A5129
:1006200034E0030E791901E17A5127E0020E7919BD
:1006300001E17A511AE0010E791901E17A510DE0D8
:10064000795101E17A5101E058D08A9C8A9E8B9EB3
:100650008B9C8B968B988B8A50D08A8C8A9E8B9E93
:100660008B8C8B868B888B8A48D08A9C8A9E8B8EBB
:100670008B9C8B968B888B9A40D08A9C8A9E8B9E73
:100680008B9C8B868B888B9A38D08A8C8A9E8B9E8B
:100690008B8C8B868B988B9A30D08A9C8A8E8B9E83
:1006A0008B9C8B868B988B9A28D08A9C8A8E8B9E6B
:1006B0008B9C8B968B988B9A20D08A9C8A9E8B9E43
:1006C0008B8C8B868B988B8A18D08A9C8A9E8B9E6B
:1006D0008B9C8B968B988B9A10D08A9C8A9E8B9E33
:1006E0008B9C8B868B988B9A08D08A8C8A8E8B8E6B
:1006F0008B8C8B868B888B8A00D07DC020F0216A02
:1007000020BE216820507B1902E121507C1902E1B2
:100710008A9A01D08A8A020E7B1901E17C5112E08B
:10072000010E7B1901E17C5109E07B5101E17C5113
:1007300001E00CD08A888B848B9208D08A988B84B5
:100740008B8204D08A888B948B8200D07B2B000E06
:100750007C23030E7CAF02D0D89003D07B5D000ECB
:100760007C5902E37B6B7C6BE55200EE1FF00C0EB4
:10077000E80403E3E5CFEDFFFBD700EE13F0140E22
:10078000E80403E3E5CFEDFFFBD7E5CFFAFFE5CFC4
:10079000F4FFE5CFF3FFE5CFF5FFE5CFF7FFE5CFBA
:1007A000F6FFE5CFEAFFE5CFE9FFE5CFDAFF11007D
:1007B000006A0EAEE1EF03F00D6C0E1EE86A0E2229
:1007C000001E09AEE9EF03F0086C091EE86A092271
:1007D000001E59EC05F009BEF9EF03F000AE000C65
:1007E000086C091EE86A0922046C051EE86A0522E5
:1007F000000C00BEF0EF03F00188FF0C006AE86A0D
:100800000EAE0BEF04F00B6C0C1E0D1E0E1E0C2218
:100810000D220E22001E09AE16EF04F0066C071E14
:10082000081E091E072208220922001EE6EC04F019
:1008300009BE2DEF04F000AE000C066C071E081E6A
:10084000091EE86A072208220922026C031E041E00
:10085000051E032204220522000C00BE1DEF04F039
:100860000188FF0C09C013F008C012F008500D02F7
:10087000F4CF07F0F3CF06F009500E02F4CF09F0E1
:10088000F3CF08F00D02F3500726F4500822E86A6F
:10089000092212500E02F3500726F4500822E86A8B
:1008A00009220EAE58EF04F01250085E1350095A98
:0E08B00013AE000C0D50085E0E50095A000CDD
:0208BE00060E24
:1008C000F66E000EF76E000EF86E00010900F5508E
:1008D000856F0900F550866F03E1856701D03DD033
:1008E0000900F550806F0900F550816F0900F5503F
:1008F000826F09000900F550E96E0900F550EA6EB3
:10090000090009000900F550836F0900F550846F54
:1009100009000900F6CF87F0F7CF88F0F8CF89F00B
:1009200080C0F6FF81C0F7FF82C0F8FF000183534B
:1009300002E1845307E00900F550EE6E8307F8E208
:100940008407F9D787C0F6FF88C0F7FF89C0F8FF92
:0C09500000018507000E865BBFD7120077
:04095C0006500B0234
:10096000F3CF02F0F4CF03F00C02F3500326000E95
:10097000F420046E06500D02F3500426000EF420FD
:10098000056E06500E02F350052607500B02F35079
:100990000326F4500422000E052207500C02F350E7
:1009A0000426F450052207500D02F3500526085086
:1009B0000B02F3500426F450052208500C02F350A9
:0C09C000052609500B02F350052612001A
:0409CC00056A046A4A
:1009D000036A026A200EE76ED8900636073608369C
:1009E000093602360336043605360B50025C0C50CD
:1009F00003580D5004580E50055809E30B50025E81
:100A00000C50035A0D50045A0E50055A062AE72E70
:040A1000E4D7120015
:0C0A1400D9CFE6FFDACFE6FFE1CFD9FF33
:100A2000E2CFDAFFE652E652FC0EDBCFDEFFDBCF91
:100A3000DDFF010EDB50D76EDF50D66EE552E5527A
:0C0A4000E552E5CFDAFFE7CFD9FF120046
:040A4C00D9CFE6FF19
:100A5000DACFE6FFE1CFD9FFE2CFDAFFFD0EDB50C0
:100A60007F0BD56ED76AD66AF294FD0EDBAE02D04C
:100A7000F28A01D0F29AD58EE552E5CFDAFFE7CFC0
:040A8000D9FF120088
:0C0A8400D9CFE6FFDACFE6FFE1CFD9FFC3
:100A9000E2CFDAFFC30EC214146EFD0EDB407F0BF3
:100AA0003C0B1410C26EE552E5CFDAFFE7CFD9FF59
:020AB000120032
:0E0AB200056A046A100EE76ED8900836093601
:100AC000043605360D50045C0E50055805E30D50F4
:0E0AD000045E0E50055A082AE72EF0D71200D9
:020ADE00000E08
:100AE000F36E00EE00F0030E01D81200EA6002D0AF
:0E0AF000EE6AFCD7F350E9601200EE6AFCD704
:020AFE0011EEF7
:100B000000F021EE00F0F86A019C5FEC04F09DEC2F
:0A0B100005F007EC00F0FBD712001F
:060B1A00C450176E166ABC
:0C0B2000C3501610F36E17C0F4FF120053
:040B2C00C250020BA6
:060B300001E0010E1200BD
:040B3600C282120065
:020B3A001200A7
:020000040030CA
:0100000000FF
:0100010008F6
:0100020039C4
:0100030000FC
:0100050000FA
:010006008079
:0100080003F4
:01000900C036
:01000A0003F2
:01000B00E014
:01000C0003F0
:01000D0040B2
:00000001FF
